{
    "contractName": "EternalToken",
    "abi": [
        {
            "inputs": [],
            "stateMutability": "nonpayable",
            "type": "constructor"
        },
        {
            "anonymous": false,
            "inputs": [
                {
                    "indexed": true,
                    "internalType": "address",
                    "name": "owner",
                    "type": "address"
                },
                {
                    "indexed": true,
                    "internalType": "address",
                    "name": "spender",
                    "type": "address"
                },
                {
                    "indexed": false,
                    "internalType": "uint256",
                    "name": "value",
                    "type": "uint256"
                }
            ],
            "name": "Approval",
            "type": "event"
        },
        {
            "anonymous": false,
            "inputs": [
                {
                    "indexed": false,
                    "internalType": "bool",
                    "name": "value",
                    "type": "bool"
                }
            ],
            "name": "AutoLiquidityProvisionUpdated",
            "type": "event"
        },
        {
            "anonymous": false,
            "inputs": [
                {
                    "indexed": false,
                    "internalType": "uint256",
                    "name": "amountETRNL",
                    "type": "uint256"
                },
                {
                    "indexed": false,
                    "internalType": "uint256",
                    "name": "totalSwappedETRNL",
                    "type": "uint256"
                },
                {
                    "indexed": false,
                    "internalType": "uint256",
                    "name": "amountAVAX",
                    "type": "uint256"
                }
            ],
            "name": "AutomaticLiquidityProvision",
            "type": "event"
        },
        {
            "anonymous": false,
            "inputs": [
                {
                    "indexed": true,
                    "internalType": "address",
                    "name": "newFund",
                    "type": "address"
                }
            ],
            "name": "FundRightsAttributed",
            "type": "event"
        },
        {
            "anonymous": false,
            "inputs": [
                {
                    "indexed": false,
                    "internalType": "uint256",
                    "name": "amount",
                    "type": "uint256"
                }
            ],
            "name": "LPRewardsClaimed",
            "type": "event"
        },
        {
            "anonymous": false,
            "inputs": [
                {
                    "indexed": false,
                    "internalType": "uint256",
                    "name": "amount",
                    "type": "uint256"
                },
                {
                    "indexed": false,
                    "internalType": "address",
                    "name": "recipient",
                    "type": "address"
                }
            ],
            "name": "LPRewardsTransferred",
            "type": "event"
        },
        {
            "anonymous": false,
            "inputs": [
                {
                    "indexed": false,
                    "internalType": "uint256",
                    "name": "amount",
                    "type": "uint256"
                }
            ],
            "name": "LPTokensStaked",
            "type": "event"
        },
        {
            "anonymous": false,
            "inputs": [
                {
                    "indexed": false,
                    "internalType": "uint256",
                    "name": "amount",
                    "type": "uint256"
                },
                {
                    "indexed": false,
                    "internalType": "address",
                    "name": "recipient",
                    "type": "address"
                }
            ],
            "name": "LPTokensUnstakedAndTransferred",
            "type": "event"
        },
        {
            "anonymous": false,
            "inputs": [
                {
                    "indexed": false,
                    "internalType": "uint256",
                    "name": "amount",
                    "type": "uint256"
                },
                {
                    "indexed": false,
                    "internalType": "address",
                    "name": "recipient",
                    "type": "address"
                }
            ],
            "name": "LockedAVAXTransferred",
            "type": "event"
        },
        {
            "anonymous": false,
            "inputs": [
                {
                    "indexed": true,
                    "internalType": "address",
                    "name": "previousOwner",
                    "type": "address"
                },
                {
                    "indexed": true,
                    "internalType": "address",
                    "name": "newOwner",
                    "type": "address"
                }
            ],
            "name": "OwnershipTransferred",
            "type": "event"
        },
        {
            "anonymous": false,
            "inputs": [
                {
                    "indexed": true,
                    "internalType": "address",
                    "name": "from",
                    "type": "address"
                },
                {
                    "indexed": true,
                    "internalType": "address",
                    "name": "to",
                    "type": "address"
                },
                {
                    "indexed": false,
                    "internalType": "uint256",
                    "name": "value",
                    "type": "uint256"
                }
            ],
            "name": "Transfer",
            "type": "event"
        },
        {
            "anonymous": false,
            "inputs": [
                {
                    "indexed": false,
                    "internalType": "uint256",
                    "name": "oldRate",
                    "type": "uint256"
                },
                {
                    "indexed": false,
                    "internalType": "uint256",
                    "name": "newRate",
                    "type": "uint256"
                },
                {
                    "indexed": false,
                    "internalType": "enum IEternalToken.Rate",
                    "name": "rate",
                    "type": "uint8"
                }
            ],
            "name": "UpdateRate",
            "type": "event"
        },
        {
            "inputs": [
                {
                    "internalType": "address",
                    "name": "owner",
                    "type": "address"
                },
                {
                    "internalType": "address",
                    "name": "spender",
                    "type": "address"
                }
            ],
            "name": "allowance",
            "outputs": [
                {
                    "internalType": "uint256",
                    "name": "",
                    "type": "uint256"
                }
            ],
            "stateMutability": "view",
            "type": "function"
        },
        {
            "inputs": [
                {
                    "internalType": "address",
                    "name": "spender",
                    "type": "address"
                },
                {
                    "internalType": "uint256",
                    "name": "amount",
                    "type": "uint256"
                }
            ],
            "name": "approve",
            "outputs": [
                {
                    "internalType": "bool",
                    "name": "",
                    "type": "bool"
                }
            ],
            "stateMutability": "nonpayable",
            "type": "function"
        },
        {
            "inputs": [
                {
                    "internalType": "address",
                    "name": "newFund",
                    "type": "address"
                }
            ],
            "name": "attributeFundRights",
            "outputs": [],
            "stateMutability": "nonpayable",
            "type": "function"
        },
        {
            "inputs": [
                {
                    "internalType": "address",
                    "name": "account",
                    "type": "address"
                }
            ],
            "name": "balanceOf",
            "outputs": [
                {
                    "internalType": "uint256",
                    "name": "",
                    "type": "uint256"
                }
            ],
            "stateMutability": "view",
            "type": "function"
        },
        {
            "inputs": [
                {
                    "internalType": "uint64",
                    "name": "amount",
                    "type": "uint64"
                }
            ],
            "name": "burn",
            "outputs": [
                {
                    "internalType": "bool",
                    "name": "",
                    "type": "bool"
                }
            ],
            "stateMutability": "nonpayable",
            "type": "function"
        },
        {
            "inputs": [],
            "name": "claimPNG",
            "outputs": [],
            "stateMutability": "nonpayable",
            "type": "function"
        },
        {
            "inputs": [
                {
                    "internalType": "uint256",
                    "name": "reflectedAmount",
                    "type": "uint256"
                }
            ],
            "name": "convertFromReflectedToTrueAmount",
            "outputs": [
                {
                    "internalType": "uint256",
                    "name": "",
                    "type": "uint256"
                }
            ],
            "stateMutability": "view",
            "type": "function"
        },
        {
            "inputs": [
                {
                    "internalType": "uint256",
                    "name": "amount",
                    "type": "uint256"
                },
                {
                    "internalType": "bool",
                    "name": "deductTransferFee",
                    "type": "bool"
                }
            ],
            "name": "convertFromTrueToReflectedAmount",
            "outputs": [
                {
                    "internalType": "uint256",
                    "name": "",
                    "type": "uint256"
                }
            ],
            "stateMutability": "view",
            "type": "function"
        },
        {
            "inputs": [],
            "name": "decimals",
            "outputs": [
                {
                    "internalType": "uint8",
                    "name": "",
                    "type": "uint8"
                }
            ],
            "stateMutability": "pure",
            "type": "function"
        },
        {
            "inputs": [
                {
                    "internalType": "address",
                    "name": "spender",
                    "type": "address"
                },
                {
                    "internalType": "uint256",
                    "name": "subtractedValue",
                    "type": "uint256"
                }
            ],
            "name": "decreaseAllowance",
            "outputs": [
                {
                    "internalType": "bool",
                    "name": "",
                    "type": "bool"
                }
            ],
            "stateMutability": "nonpayable",
            "type": "function"
        },
        {
            "inputs": [
                {
                    "internalType": "address",
                    "name": "fund",
                    "type": "address"
                }
            ],
            "name": "designateFund",
            "outputs": [],
            "stateMutability": "nonpayable",
            "type": "function"
        },
        {
            "inputs": [],
            "name": "eternalFund",
            "outputs": [
                {
                    "internalType": "address",
                    "name": "",
                    "type": "address"
                }
            ],
            "stateMutability": "view",
            "type": "function"
        },
        {
            "inputs": [
                {
                    "internalType": "address",
                    "name": "account",
                    "type": "address"
                }
            ],
            "name": "excludeFromReward",
            "outputs": [],
            "stateMutability": "nonpayable",
            "type": "function"
        },
        {
            "inputs": [],
            "name": "fund",
            "outputs": [
                {
                    "internalType": "address",
                    "name": "",
                    "type": "address"
                }
            ],
            "stateMutability": "view",
            "type": "function"
        },
        {
            "inputs": [],
            "name": "getUnlockTime",
            "outputs": [
                {
                    "internalType": "uint256",
                    "name": "",
                    "type": "uint256"
                }
            ],
            "stateMutability": "view",
            "type": "function"
        },
        {
            "inputs": [
                {
                    "internalType": "address",
                    "name": "account",
                    "type": "address"
                }
            ],
            "name": "includeInReward",
            "outputs": [],
            "stateMutability": "nonpayable",
            "type": "function"
        },
        {
            "inputs": [
                {
                    "internalType": "address",
                    "name": "spender",
                    "type": "address"
                },
                {
                    "internalType": "uint256",
                    "name": "addedValue",
                    "type": "uint256"
                }
            ],
            "name": "increaseAllowance",
            "outputs": [
                {
                    "internalType": "bool",
                    "name": "",
                    "type": "bool"
                }
            ],
            "stateMutability": "nonpayable",
            "type": "function"
        },
        {
            "inputs": [
                {
                    "internalType": "address",
                    "name": "account",
                    "type": "address"
                }
            ],
            "name": "isExcludedFromFee",
            "outputs": [
                {
                    "internalType": "bool",
                    "name": "",
                    "type": "bool"
                }
            ],
            "stateMutability": "view",
            "type": "function"
        },
        {
            "inputs": [
                {
                    "internalType": "address",
                    "name": "account",
                    "type": "address"
                }
            ],
            "name": "isExcludedFromReward",
            "outputs": [
                {
                    "internalType": "bool",
                    "name": "",
                    "type": "bool"
                }
            ],
            "stateMutability": "view",
            "type": "function"
        },
        {
            "inputs": [
                {
                    "internalType": "uint256",
                    "name": "time",
                    "type": "uint256"
                }
            ],
            "name": "lockOwnership",
            "outputs": [],
            "stateMutability": "nonpayable",
            "type": "function"
        },
        {
            "inputs": [],
            "name": "name",
            "outputs": [
                {
                    "internalType": "string",
                    "name": "",
                    "type": "string"
                }
            ],
            "stateMutability": "pure",
            "type": "function"
        },
        {
            "inputs": [],
            "name": "owner",
            "outputs": [
                {
                    "internalType": "address",
                    "name": "",
                    "type": "address"
                }
            ],
            "stateMutability": "view",
            "type": "function"
        },
        {
            "inputs": [],
            "name": "pangolinPair",
            "outputs": [
                {
                    "internalType": "address",
                    "name": "",
                    "type": "address"
                }
            ],
            "stateMutability": "view",
            "type": "function"
        },
        {
            "inputs": [],
            "name": "pangolinRouter",
            "outputs": [
                {
                    "internalType": "contract IPangolinRouter",
                    "name": "",
                    "type": "address"
                }
            ],
            "stateMutability": "view",
            "type": "function"
        },
        {
            "inputs": [],
            "name": "pangolinStaking",
            "outputs": [
                {
                    "internalType": "contract IStakingRewards",
                    "name": "",
                    "type": "address"
                }
            ],
            "stateMutability": "view",
            "type": "function"
        },
        {
            "inputs": [],
            "name": "pgl",
            "outputs": [
                {
                    "internalType": "contract IERC20",
                    "name": "",
                    "type": "address"
                }
            ],
            "stateMutability": "view",
            "type": "function"
        },
        {
            "inputs": [],
            "name": "png",
            "outputs": [
                {
                    "internalType": "contract IERC20",
                    "name": "",
                    "type": "address"
                }
            ],
            "stateMutability": "view",
            "type": "function"
        },
        {
            "inputs": [],
            "name": "renounceOwnership",
            "outputs": [],
            "stateMutability": "nonpayable",
            "type": "function"
        },
        {
            "inputs": [
                {
                    "internalType": "bool",
                    "name": "value",
                    "type": "bool"
                }
            ],
            "name": "setAutoLiquidityProvision",
            "outputs": [],
            "stateMutability": "nonpayable",
            "type": "function"
        },
        {
            "inputs": [
                {
                    "internalType": "uint8",
                    "name": "newRate",
                    "type": "uint8"
                },
                {
                    "internalType": "enum IEternalToken.Rate",
                    "name": "rate",
                    "type": "uint8"
                }
            ],
            "name": "setRate",
            "outputs": [],
            "stateMutability": "nonpayable",
            "type": "function"
        },
        {
            "inputs": [],
            "name": "symbol",
            "outputs": [
                {
                    "internalType": "string",
                    "name": "",
                    "type": "string"
                }
            ],
            "stateMutability": "pure",
            "type": "function"
        },
        {
            "inputs": [],
            "name": "totalSupply",
            "outputs": [
                {
                    "internalType": "uint256",
                    "name": "",
                    "type": "uint256"
                }
            ],
            "stateMutability": "view",
            "type": "function"
        },
        {
            "inputs": [
                {
                    "internalType": "address",
                    "name": "recipient",
                    "type": "address"
                },
                {
                    "internalType": "uint256",
                    "name": "amount",
                    "type": "uint256"
                }
            ],
            "name": "transfer",
            "outputs": [
                {
                    "internalType": "bool",
                    "name": "",
                    "type": "bool"
                }
            ],
            "stateMutability": "nonpayable",
            "type": "function"
        },
        {
            "inputs": [
                {
                    "internalType": "address",
                    "name": "sender",
                    "type": "address"
                },
                {
                    "internalType": "address",
                    "name": "recipient",
                    "type": "address"
                },
                {
                    "internalType": "uint256",
                    "name": "amount",
                    "type": "uint256"
                }
            ],
            "name": "transferFrom",
            "outputs": [
                {
                    "internalType": "bool",
                    "name": "",
                    "type": "bool"
                }
            ],
            "stateMutability": "nonpayable",
            "type": "function"
        },
        {
            "inputs": [
                {
                    "internalType": "address",
                    "name": "newOwner",
                    "type": "address"
                }
            ],
            "name": "transferOwnership",
            "outputs": [],
            "stateMutability": "nonpayable",
            "type": "function"
        },
        {
            "inputs": [],
            "name": "unlock",
            "outputs": [],
            "stateMutability": "nonpayable",
            "type": "function"
        },
        {
            "inputs": [
                {
                    "internalType": "uint256",
                    "name": "amount",
                    "type": "uint256"
                },
                {
                    "internalType": "address",
                    "name": "recipient",
                    "type": "address"
                }
            ],
            "name": "withdrawClaimedPNG",
            "outputs": [],
            "stateMutability": "nonpayable",
            "type": "function"
        },
        {
            "inputs": [
                {
                    "internalType": "address payable",
                    "name": "recipient",
                    "type": "address"
                }
            ],
            "name": "withdrawLockedAVAX",
            "outputs": [],
            "stateMutability": "nonpayable",
            "type": "function"
        },
        {
            "inputs": [
                {
                    "internalType": "uint256",
                    "name": "amount",
                    "type": "uint256"
                },
                {
                    "internalType": "address",
                    "name": "recipient",
                    "type": "address"
                }
            ],
            "name": "withdrawStakedPGL",
            "outputs": [],
            "stateMutability": "nonpayable",
            "type": "function"
        },
        {
            "stateMutability": "payable",
            "type": "receive"
        }
    ],
    "bytecode": "60806040523480156200001157600080fd5b50600080546001600160a01b031916339081178255604051909182917f8be0079c531659141344cd1fd0a4f28419497f9722a3daafe3b4186f6b6457e0908290a350601380546001600160401b031916678ac7230489e800009081179091556000199062000080908262000855565b6200008c90826200081d565b601255601354620000aa906103e8906001600160401b0316620007f4565b601380546001600160401b03929092166801000000000000000002600160401b600160801b031990921691909117905560125460046000620000e93390565b6001600160a01b03168152602080820192909252604090810160002092909255600a80546001600160a01b03191673e54ca86531e17ef3616d22ca28b0d458b6c89106908117909155825163c45a015560e01b81529251909263c45a0155926004808301939192829003018186803b1580156200016557600080fd5b505afa1580156200017a573d6000803e3d6000fd5b505050506040513d601f19601f82011682018060405250810190620001a09190620007b2565b6001600160a01b031663c9c6539630600a60009054906101000a90046001600160a01b03166001600160a01b03166373b295c26040518163ffffffff1660e01b815260040160206040518083038186803b158015620001fe57600080fd5b505afa15801562000213573d6000803e3d6000fd5b505050506040513d601f19601f82011682018060405250810190620002399190620007b2565b6040516001600160e01b031960e085901b1681526001600160a01b03928316600482015291166024820152604401602060405180830381600087803b1580156200028257600080fd5b505af115801562000297573d6000803e3d6000fd5b505050506040513d601f19601f82011682018060405250810190620002bd9190620007b2565b600e80546001600160a01b03929092166001600160a01b03199283168117909155600b8054831673701e03fad691799a8905043c0d18d2213bbcf2c7179055600d805483169091179055600c80549091167360781c2586d68229fde47564546784ab3faca982179055620003436200033d6000546001600160a01b031690565b620003b9565b6001600860006200035c6000546001600160a01b031690565b6001600160a01b031681526020810191909152604001600020805460ff19169115159190911790556200038f30620003b9565b503060009081526008602090815260408220805460ff1916600117905590805260079052620008ae565b6000546001600160a01b03163314620004195760405162461bcd60e51b815260206004820181905260248201527f4f776e61626c653a2063616c6c6572206973206e6f7420746865206f776e657260448201526064015b60405180910390fd5b6001600160a01b03811660009081526007602052604090205460ff1615620004845760405162461bcd60e51b815260206004820152601b60248201527f4163636f756e7420697320616c7265616479206578636c756465640000000000604482015260640162000410565b6001600160a01b03811660009081526004602052604090205415620004e1576001600160a01b038116600090815260046020526040902054620004c79062000547565b6001600160a01b0382166000908152600560205260409020555b6001600160a01b03166000818152600760205260408120805460ff191660019081179091556009805491820181559091527f6e1540171b6c0c960b71a7020d9f60077f6af931a8bbf590da0223dacf75c7af0180546001600160a01b0319169091179055565b60006012548211156200059d5760405162461bcd60e51b815260206004820152601f60248201527f416d6f756e742065786365656473207265666c656374656420737570706c7900604482015260640162000410565b6000620005a9620005be565b9050620005b78184620007dd565b9392505050565b60008080620005cc620005e4565b9092509050620005dd8183620007dd565b9250505090565b60125460135460009182916001600160401b0316825b600954811015620007605782600460006009848154811062000620576200062062000898565b60009182526020808320909101546001600160a01b0316835282019290925260400190205411806200068f575081600560006009848154811062000668576200066862000898565b60009182526020808320909101546001600160a01b03168352820192909252604001902054115b15620006b157505060125460135490946001600160401b039091169350915050565b6004600060098381548110620006cb57620006cb62000898565b60009182526020808320909101546001600160a01b03168352820192909252604001902054620006fc90846200081d565b9250600560006009838154811062000718576200071862000898565b60009182526020808320909101546001600160a01b031683528201929092526040019020546200074990836200081d565b915080620007578162000837565b915050620005fa565b5080158062000788575060135460125462000785916001600160401b031690620007dd565b82105b15620007a957505060125460135490936001600160401b0390911692509050565b90939092509050565b600060208284031215620007c557600080fd5b81516001600160a01b0381168114620005b757600080fd5b600082620007ef57620007ef62000882565b500490565b60006001600160401b038381168062000811576200081162000882565b92169190910492915050565b6000828210156200083257620008326200086c565b500390565b60006000198214156200084e576200084e6200086c565b5060010190565b60008262000867576200086762000882565b500690565b634e487b7160e01b600052601160045260246000fd5b634e487b7160e01b600052601260045260246000fd5b634e487b7160e01b600052603260045260246000fd5b6132c680620008be6000396000f3fe6080604052600436106102345760003560e01c8063715018a61161012e578063a69df4b5116100ab578063d19c0bb91161006f578063d19c0bb9146106e6578063d3ff1b2b14610706578063d921bc4b14610726578063dd62ed3e14610746578063f2fde38b1461078c57600080fd5b8063a69df4b514610653578063a9059cbb14610668578063b358cd6714610688578063b60d4288146106a8578063c2e8b402146106c657600080fd5b806399bc9c1b116100f257806399bc9c1b146105b35780639dbead42146105d3578063a1380e01146105f3578063a457c2d714610613578063a5cd8aac1461063357600080fd5b8063715018a6146104f95780637ef3a1821461050e57806388f820201461052e5780638da5cb5b1461056757806395d89b411461058557600080fd5b80635342acb4116101bc578063602c32fa11610180578063602c32fa14610464578063607aedb714610484578063634a0ffc146104a457806364beb745146104b957806370a08231146104d957600080fd5b80635342acb4146103b65780635af0cd90146103ef5780635eadd9521461040f5780635f7756781461042f578063602bc62b1461044f57600080fd5b80632eff3776116102035780632eff377614610300578063313ce567146103385780633685d41914610354578063395093511461037657806352390c021461039657600080fd5b806306fdde0314610240578063095ea7b31461028857806318160ddd146102b857806323b872dd146102e057600080fd5b3661023b57005b600080fd5b34801561024c57600080fd5b5060408051808201909152600d81526c22ba32b93730b6102a37b5b2b760991b60208201525b60405161027f9190612ebe565b60405180910390f35b34801561029457600080fd5b506102a86102a3366004612d4d565b6107ac565b604051901515815260200161027f565b3480156102c457600080fd5b506013546001600160401b03165b60405190815260200161027f565b3480156102ec57600080fd5b506102a86102fb366004612d0c565b6107c3565b34801561030c57600080fd5b50600d54610320906001600160a01b031681565b6040516001600160a01b03909116815260200161027f565b34801561034457600080fd5b506040516009815260200161027f565b34801561036057600080fd5b5061037461036f366004612c99565b610868565b005b34801561038257600080fd5b506102a8610391366004612d4d565b610a2f565b3480156103a257600080fd5b506103746103b1366004612c99565b610a66565b3480156103c257600080fd5b506102a86103d1366004612c99565b6001600160a01b031660009081526008602052604090205460ff1690565b3480156103fb57600080fd5b50600a54610320906001600160a01b031681565b34801561041b57600080fd5b50600b54610320906001600160a01b031681565b34801561043b57600080fd5b50600c54610320906001600160a01b031681565b34801561045b57600080fd5b506003546102d2565b34801561047057600080fd5b50600e54610320906001600160a01b031681565b34801561049057600080fd5b506102d261049f366004612db3565b610bb9565b3480156104b057600080fd5b50610374610c2a565b3480156104c557600080fd5b506103746104d4366004612db3565b610dfb565b3480156104e557600080fd5b506102d26104f4366004612c99565b610e80565b34801561050557600080fd5b50610374610edf565b34801561051a57600080fd5b50610374610529366004612c99565b610f41565b34801561053a57600080fd5b506102a8610549366004612c99565b6001600160a01b031660009081526007602052604090205460ff1690565b34801561057357600080fd5b506000546001600160a01b0316610320565b34801561059157600080fd5b50604080518082019091526005815264115514939360da1b6020820152610272565b3480156105bf57600080fd5b506103746105ce366004612e86565b610fd8565b3480156105df57600080fd5b506102a86105ee366004612e5d565b61133f565b3480156105ff57600080fd5b5061037461060e366004612de5565b6114cc565b34801561061f57600080fd5b506102a861062e366004612d4d565b611689565b34801561063f57600080fd5b506102d261064e366004612e0a565b6116c0565b34801561065f57600080fd5b50610374611750565b34801561067457600080fd5b506102a8610683366004612d4d565b611862565b34801561069457600080fd5b506103746106a3366004612d79565b611878565b3480156106b457600080fd5b506002546001600160a01b0316610320565b3480156106d257600080fd5b506103746106e1366004612de5565b61190f565b3480156106f257600080fd5b50610374610701366004612c99565b611a3e565b34801561071257600080fd5b50610374610721366004612c99565b611b2b565b34801561073257600080fd5b50600f54610320906001600160a01b031681565b34801561075257600080fd5b506102d2610761366004612cd3565b6001600160a01b03918216600090815260066020908152604080832093909416825291909152205490565b34801561079857600080fd5b506103746107a7366004612c99565b611c7d565b60006107b9338484611d55565b5060015b92915050565b60006107d98484846001600160401b0316611e63565b6001600160a01b0384166000908152600660209081526040808320338452909152902054828110156108495760405162461bcd60e51b81526020600482015260146024820152734e6f7420656e6f75676820616c6c6f77616e636560601b60448201526064015b60405180910390fd5b61085d85336108588685613185565b611d55565b506001949350505050565b6000546001600160a01b031633146108925760405162461bcd60e51b815260040161084090612f13565b6001600160a01b03811660009081526007602052604090205460ff166108fa5760405162461bcd60e51b815260206004820152601b60248201527f4163636f756e7420697320616c726561647920696e636c7564656400000000006044820152606401610840565b60005b600954811015610a2b57816001600160a01b03166009828154811061092457610924613237565b6000918252602090912001546001600160a01b03161415610a19576009805461094f90600190613185565b8154811061095f5761095f613237565b600091825260209091200154600980546001600160a01b03909216918390811061098b5761098b613237565b600091825260208083209190910180546001600160a01b0319166001600160a01b0394851617905591841681526005909152604081205560098054806109d3576109d3613221565b60008281526020808220830160001990810180546001600160a01b03191690559092019092556001600160a01b03841682526007905260409020805460ff191690555050565b80610a23816131c4565b9150506108fd565b5050565b3360008181526006602090815260408083206001600160a01b038716845290915281205490916107b99185906108589086906130c0565b6000546001600160a01b03163314610a905760405162461bcd60e51b815260040161084090612f13565b6001600160a01b03811660009081526007602052604090205460ff1615610af95760405162461bcd60e51b815260206004820152601b60248201527f4163636f756e7420697320616c7265616479206578636c7564656400000000006044820152606401610840565b6001600160a01b03811660009081526004602052604090205415610b53576001600160a01b038116600090815260046020526040902054610b3990610bb9565b6001600160a01b0382166000908152600560205260409020555b6001600160a01b03166000818152600760205260408120805460ff191660019081179091556009805491820181559091527f6e1540171b6c0c960b71a7020d9f60077f6af931a8bbf590da0223dacf75c7af0180546001600160a01b0319169091179055565b6000601254821115610c0d5760405162461bcd60e51b815260206004820152601f60248201527f416d6f756e742065786365656473207265666c656374656420737570706c79006044820152606401610840565b6000610c176122e6565b9050610c2381846130fd565b9392505050565b6002546001600160a01b03163314610c545760405162461bcd60e51b815260040161084090612fcc565b600c546040516370a0823160e01b81523060048201526000916001600160a01b0316906370a082319060240160206040518083038186803b158015610c9857600080fd5b505afa158015610cac573d6000803e3d6000fd5b505050506040513d601f19601f82011682018060405250810190610cd09190612dcc565b9050600b60009054906101000a90046001600160a01b03166001600160a01b0316633d18b9126040518163ffffffff1660e01b8152600401600060405180830381600087803b158015610d2257600080fd5b505af1158015610d36573d6000803e3d6000fd5b5050600c546040516370a0823160e01b8152306004820152600093506001600160a01b0390911691506370a082319060240160206040518083038186803b158015610d8057600080fd5b505afa158015610d94573d6000803e3d6000fd5b505050506040513d601f19601f82011682018060405250810190610db89190612dcc565b90507fa3a8e26beada5fe47195d1249151ae722023099d49290a7e0743234e3ac47a48610de58383613185565b6040519081526020015b60405180910390a15050565b6000546001600160a01b03163314610e255760405162461bcd60e51b815260040161084090612f13565b60008054600180546001600160a01b03199081166001600160a01b03841617909155169055610e5481426130c0565b600355600080546040516001600160a01b0390911690600080516020613271833981519152908390a350565b6001600160a01b03811660009081526007602052604081205460ff1615610ebd57506001600160a01b031660009081526005602052604090205490565b6001600160a01b0382166000908152600460205260409020546107bd90610bb9565b6000546001600160a01b03163314610f095760405162461bcd60e51b815260040161084090612f13565b600080546040516001600160a01b0390911690600080516020613271833981519152908390a3600080546001600160a01b0319169055565b6000546001600160a01b0316331480610f6457506002546001600160a01b031633145b610f805760405162461bcd60e51b815260040161084090612f48565b600f80546001600160a01b03908116600090815260086020526040808220805460ff1990811690915584546001600160a01b0319169386169384179094559181522080549091166001179055610fd581611a3e565b50565b6000546001600160a01b0316331480610ffb57506002546001600160a01b031633145b6110175760405162461bcd60e51b815260040161084090612f48565b600081600381111561102b5761102b61320b565b1015801561104b575060038160038111156110485761104861320b565b11155b61108b5760405162461bcd60e51b8152602060048201526011602482015270496e76616c69642072617465207479706560781b6044820152606401610840565b6000808260038111156110a0576110a061320b565b141561112f5760135460199060ff600160901b8204811691600160981b81048216916110d491600160881b900416876130d8565b6110de91906130d8565b6110e891906130d8565b60ff16106111085760405162461bcd60e51b815260040161084090612f9c565b506013805460ff848116600160801b90810260ff60801b19841617909355919004166112ff565b60018260038111156111435761114361320b565b14156111d45760135460199060ff600160901b8204811691600160981b8104821691611179918891600160801b909104166130d8565b61118391906130d8565b61118d91906130d8565b60ff16106111ad5760405162461bcd60e51b815260040161084090612f9c565b506013805460ff848116600160881b90810260ff60881b19841617909355919004166112ff565b60028260038111156111e8576111e861320b565b14156112795760135460199060ff600160901b8204811691869161121e91600160881b8104821691600160801b909104166130d8565b61122891906130d8565b61123291906130d8565b60ff16106112525760405162461bcd60e51b815260040161084090612f9c565b506013805460ff848116600160981b90810260ff60981b19841617909355919004166112ff565b601354601990849060ff600160981b82048116916112a891600160881b8204811691600160801b9004166130d8565b6112b291906130d8565b6112bc91906130d8565b60ff16106112dc5760405162461bcd60e51b815260040161084090612f9c565b506013805460ff848116600160901b90810260ff60901b19841617909355919004165b7fe7e979edeca5d6c0b42983db9759dd112405f32fd61b583fcc893dc10fff806b81848460405161133293929190613084565b60405180910390a1505050565b6000338061138f5760405162461bcd60e51b815260206004820152601a60248201527f4275726e2066726f6d20746865207a65726f20616464726573730000000000006044820152606401610840565b600061139a82610e80565b9050836001600160401b03168110156113f55760405162461bcd60e51b815260206004820152601b60248201527f4275726e20616d6f756e7420657863656564732062616c616e636500000000006044820152606401610840565b600061140b856001600160401b031660006116c0565b6001600160a01b038416600090815260046020526040812080549293508392909190611438908490613185565b90915550506001600160a01b03831660009081526007602052604090205460ff1661147b576001600160a01b0383166000908152600560205260409020546114a8565b6001600160a01b0383166000908152600560205260409020546114a8906001600160401b03871690613185565b6001600160a01b03841660009081526005602052604090205561085d838683612309565b6002546001600160a01b031633146114f65760405162461bcd60e51b815260040161084090612fcc565b600c546040516370a0823160e01b81523060048201526000916001600160a01b0316906370a082319060240160206040518083038186803b15801561153a57600080fd5b505afa15801561154e573d6000803e3d6000fd5b505050506040513d601f19601f820116820180604052508101906115729190612dcc565b9050808311156115c45760405162461bcd60e51b815260206004820152601a60248201527f416d6f756e74206578636565647320504e472062616c616e63650000000000006044820152606401610840565b600c5460405163a9059cbb60e01b81526001600160a01b038481166004830152602482018690529091169063a9059cbb90604401602060405180830381600087803b15801561161257600080fd5b505af1158015611626573d6000803e3d6000fd5b505050506040513d601f19601f8201168201806040525081019061164a9190612d96565b50604080518481526001600160a01b03841660208201527f2565c2dd5e6222c56e2ff3d34e200555235a12cb0880f14ec49df865c5544a4b9101611332565b3360008181526006602090815260408083206001600160a01b038716845290915281205490916107b9918590610858908690613185565b6013546000906001600160401b031683111561171e5760405162461bcd60e51b815260206004820152601b60248201527f416d6f756e74206578636565647320746f74616c20737570706c7900000000006044820152606401610840565b8161173a57600061172e84612432565b509092506107bd915050565b600061174584612432565b5092506107bd915050565b6001546001600160a01b031633146117bf5760405162461bcd60e51b815260206004820152602c60248201527f4f6e6c79207468652070726576696f7573206f776e65722063616e20756e6c6f60448201526b0636b206f6e776572736869760a41b6064820152608401610840565b60035442116118105760405162461bcd60e51b815260206004820152601c60248201527f54686520636f6e7472616374206973207374696c6c206c6f636b6564000000006044820152606401610840565b600154600080546040516001600160a01b03938416939091169160008051602061327183398151915291a360018054600080546001600160a01b03199081166001600160a01b03841617909155169055565b60006107b93384846001600160401b0316611e63565b6000546001600160a01b031633148061189b57506002546001600160a01b031633145b6118b75760405162461bcd60e51b815260040161084090612f48565b60138054821515600160a81b0260ff60a81b199091161790556040517fe01426124a7373a9e789f5e9306ba57d87c02538e4d8a663c5572224c9a123f99061190490831515815260200190565b60405180910390a150565b6002546001600160a01b031633146119395760405162461bcd60e51b815260040161084090612fcc565b60105482111561198b5760405162461bcd60e51b815260206004820152601d60248201527f416d6f756e742065786365656473207374616b65642062616c616e63650000006044820152606401610840565b600b54604051632e1a7d4d60e01b8152600481018490526001600160a01b0390911690632e1a7d4d90602401600060405180830381600087803b1580156119d157600080fd5b505af11580156119e5573d6000803e3d6000fd5b5050505081601060008282546119fb9190613185565b9091555050604080518381526001600160a01b03831660208201527f109da4d966dbb746f2efa786a81fd612e75761b252ac156ffbd83430738034d09101610def565b6000546001600160a01b0316331480611a6157506002546001600160a01b031633145b611a7d5760405162461bcd60e51b815260040161084090612f48565b6001600160a01b038116611ae15760405162461bcd60e51b815260206004820152602560248201527f4f776e61626c653a206e65772066756e6420697320746865207a65726f206164604482015264647265737360d81b6064820152608401610840565b600280546001600160a01b0319166001600160a01b0383169081179091556040517f8afb069db37c5af18ec0184a202b2a603d35a355a781509a47cbd15d9bcb5b6d90600090a250565b6002546001600160a01b03163314611b555760405162461bcd60e51b815260040161084090612fcc565b6001600160a01b038116611bab5760405162461bcd60e51b815260206004820152601d60248201527f526563697069656e7420697320746865207a65726f20616464726573730000006044820152606401610840565b600060115411611bfd5760405162461bcd60e51b815260206004820152601960248201527f204c6f636b656420415641582062616c616e63652069732030000000000000006044820152606401610840565b6011805460009182905560405190916001600160a01b0384169183156108fc0291849190818181858888f19350505050158015611c3e573d6000803e3d6000fd5b50604080518281526001600160a01b03841660208201527f107c3a40375fca2192849e60a49e2d71d78a0ed7f2e5a8769c6a1ed9ff9a5ba99101610def565b6000546001600160a01b03163314611ca75760405162461bcd60e51b815260040161084090612f13565b6001600160a01b038116611d0c5760405162461bcd60e51b815260206004820152602660248201527f4f776e61626c653a206e6577206f776e657220697320746865207a65726f206160448201526564647265737360d01b6064820152608401610840565b600080546040516001600160a01b038085169392169160008051602061327183398151915291a3600080546001600160a01b0319166001600160a01b0392909216919091179055565b6001600160a01b038316611dab5760405162461bcd60e51b815260206004820152601d60248201527f417070726f76652066726f6d20746865207a65726f20616464726573730000006044820152606401610840565b6001600160a01b038216611e015760405162461bcd60e51b815260206004820152601b60248201527f417070726f766520746f20746865207a65726f206164647265737300000000006044820152606401610840565b6001600160a01b0383811660008181526006602090815260408083209487168084529482529182902085905590518481527f8c5be1e5ebec7d5bd14f71427d1e84f3dd0314c0f7b2291e5b200ac8c7c3b92591015b60405180910390a3505050565b6000611e6e84610e80565b905081811015611ec05760405162461bcd60e51b815260206004820152601f60248201527f5472616e7366657220616d6f756e7420657863656564732062616c616e6365006044820152606401610840565b6001600160a01b038416611f165760405162461bcd60e51b815260206004820152601e60248201527f5472616e736665722066726f6d20746865207a65726f206164647265737300006044820152606401610840565b6001600160a01b038316611f6c5760405162461bcd60e51b815260206004820152601c60248201527f5472616e7366657220746f20746865207a65726f2061646472657373000000006044820152606401610840565b60008211611fbc5760405162461bcd60e51b815260206004820181905260248201527f5472616e7366657220616d6f756e74206d75737420657863656564207a65726f6044820152606401610840565b6000806000611fca85612432565b6001600160a01b038a16600090815260046020526040812080549497509295509093508592611ffa908490613185565b90915550506001600160a01b038616600090815260046020526040812080548492906120279084906130c0565b90915550506001600160a01b03871660009081526007602052604090205460ff1661206a576001600160a01b03871660009081526005602052604090205461208e565b6001600160a01b03871660009081526005602052604090205461208e908690613185565b6001600160a01b0380891660009081526005602090815260408083209490945591891681526007909152205460ff166120df576001600160a01b038616600090815260056020526040902054612103565b6001600160a01b0386166000908152600560205260409020546121039082906130c0565b6001600160a01b03808816600090815260056020908152604080832094909455918a1681526008909152205460ff1615801561215857506001600160a01b03861660009081526008602052604090205460ff16155b15612290576013546121b090309060649061217d90600160901b900460ff1689613156565b6121879190613111565b6013546064906121a190600160901b900460ff1688613137565b6121ab91906130fd565b612309565b6013546064906121ca90600160981b900460ff1685613137565b6121d491906130fd565b601260008282546121e59190613185565b909155505060135460649061220490600160881b900460ff1685613137565b61220e91906130fd565b600f546001600160a01b0316600090815260046020526040812080549091906122389084906130c0565b909155505060135461229090889060649061225d90600160801b900460ff1689613137565b61226791906130fd565b60135460649061228190600160801b900460ff1688613137565b61228b91906130fd565b6124f4565b856001600160a01b0316876001600160a01b03167fddf252ad1be2c89b69c2b068fc378daa952ba7f163c4a11628f55a4df523b3ef836040516122d591815260200190565b60405180910390a350505050505050565b60008060006122f3612579565b909250905061230281836130fd565b9250505090565b600080805260046020527f17ef568e3e12ab5b9c7254a8d58478811de00f9e6eb34345acd53bf8fd09d3ec80548392906123449084906130c0565b9091555050600080805260056020527f05b8ccbb9d4d8fb16ea74ce3c29a41f1b461fbdaff4714a0d9a8eb05499746bc80546001600160401b038516929061238d9084906130c0565b9091555050601380548391906000906123b09084906001600160401b031661319c565b92506101000a8154816001600160401b0302191690836001600160401b0316021790555080601260008282546123e69190613185565b90915550506040516001600160401b03831681526000906001600160a01b038516907fddf252ad1be2c89b69c2b068fc378daa952ba7f163c4a11628f55a4df523b3ef90602001611e56565b60135460009081908190819060649060ff600160981b8204811691600160881b810482169161247391600160901b8104821691600160801b909104166130d8565b61247d91906130d8565b61248791906130d8565b6124949060ff1687613137565b61249e91906130fd565b905060006124ac8287613185565b905060006124b86122e6565b905060006124c68289613137565b905060006124d48386613137565b905060006124e28284613185565b929a9299509397509095505050505050565b30600090815260046020526040812080548392906125139084906130c0565b909155505030600090815260056020526040812080548492906125379084906130c0565b909155506000905061254830610e80565b6013549091506801000000000000000090046001600160401b0316811061257357612573848261272d565b50505050565b60125460135460009182916001600160401b0316825b6009548110156126df578260046000600984815481106125b1576125b1613237565b60009182526020808320909101546001600160a01b03168352820192909252604001902054118061261c57508160056000600984815481106125f5576125f5613237565b60009182526020808320909101546001600160a01b03168352820192909252604001902054115b1561263d57505060125460135490946001600160401b039091169350915050565b600460006009838154811061265457612654613237565b60009182526020808320909101546001600160a01b031683528201929092526040019020546126839084613185565b9250600560006009838154811061269c5761269c613237565b60009182526020808320909101546001600160a01b031683528201929092526040019020546126cb9083613185565b9150806126d7816131c4565b91505061258f565b508015806127045750601354601254612701916001600160401b0316906130fd565b82105b1561272457505060125460135490936001600160401b0390911692509050565b90939092509050565b601354600160a81b900460ff166127865760405162461bcd60e51b815260206004820152601a60248201527f4175746f2d6c69717569646974792069732064697361626c65640000000000006044820152606401610840565b601354600160a01b900460ff16156127e05760405162461bcd60e51b815260206004820152601f60248201527f41206c6971756964697479207377617020697320696e2070726f6772657373006044820152606401610840565b600e546001600160a01b038381169116141561283e5760405162461bcd60e51b815260206004820181905260248201527f53656e6465722063616e277420626520746865207061697220616464726573736044820152606401610840565b610a2b816013805460ff60a01b1916600160a01b17905560006128626002836130fd565b905060006128708284613185565b90504761287c83612b30565b60006128888247613185565b600a549091506128a39030906001600160a01b031685611d55565b600a54604051637c8d9fb960e11b8152306004820181905260248201869052600060448301819052606483015260848201524260a48201526001600160a01b039091169063f91b3f7290839060c4016060604051808303818588803b15801561290b57600080fd5b505af115801561291f573d6000803e3d6000fd5b50505050506040513d601f19601f820116820180604052508101906129449190612e2f565b505050476011600082825461295991906130c0565b909155505060408051848152602081018790529081018290527fb1fa6f29a479ca0964173ca4e714aa38d465a8f77d1a8c5944757c34d47295a49060600160405180910390a1600d546040516370a0823160e01b81523060048201526000916001600160a01b0316906370a082319060240160206040518083038186803b1580156129e357600080fd5b505afa1580156129f7573d6000803e3d6000fd5b505050506040513d601f19601f82011682018060405250810190612a1b9190612dcc565b600d54600b5460405163095ea7b360e01b81526001600160a01b03918216600482015260248101849052929350169063095ea7b390604401602060405180830381600087803b158015612a6d57600080fd5b505af1158015612a81573d6000803e3d6000fd5b505050506040513d601f19601f82011682018060405250810190612aa59190612d96565b50600b5460405163534a7e1d60e11b8152600481018390526001600160a01b039091169063a694fc3a90602401600060405180830381600087803b158015612aec57600080fd5b505af1158015612b00573d6000803e3d6000fd5b505050508060106000828254612b1691906130c0565b90915550506013805460ff60a01b19169055505050505050565b6040805160028082526060820183526000926020830190803683370190505090503081600081518110612b6557612b65613237565b6001600160a01b03928316602091820292909201810191909152600a54604080516339d94ae160e11b8152905191909316926373b295c2926004808301939192829003018186803b158015612bb957600080fd5b505afa158015612bcd573d6000803e3d6000fd5b505050506040513d601f19601f82011682018060405250810190612bf19190612cb6565b81600181518110612c0457612c04613237565b6001600160a01b039283166020918202929092010152600a54612c2a9130911684611d55565b600a54604051633b158ab160e11b81526001600160a01b039091169063762b156290612c63908590600090869030904290600401613013565b600060405180830381600087803b158015612c7d57600080fd5b505af1158015612c91573d6000803e3d6000fd5b505050505050565b600060208284031215612cab57600080fd5b8135610c238161324d565b600060208284031215612cc857600080fd5b8151610c238161324d565b60008060408385031215612ce657600080fd5b8235612cf18161324d565b91506020830135612d018161324d565b809150509250929050565b600080600060608486031215612d2157600080fd5b8335612d2c8161324d565b92506020840135612d3c8161324d565b929592945050506040919091013590565b60008060408385031215612d6057600080fd5b8235612d6b8161324d565b946020939093013593505050565b600060208284031215612d8b57600080fd5b8135610c2381613262565b600060208284031215612da857600080fd5b8151610c2381613262565b600060208284031215612dc557600080fd5b5035919050565b600060208284031215612dde57600080fd5b5051919050565b60008060408385031215612df857600080fd5b823591506020830135612d018161324d565b60008060408385031215612e1d57600080fd5b823591506020830135612d0181613262565b600080600060608486031215612e4457600080fd5b8351925060208401519150604084015190509250925092565b600060208284031215612e6f57600080fd5b81356001600160401b0381168114610c2357600080fd5b60008060408385031215612e9957600080fd5b823560ff81168114612eaa57600080fd5b9150602083013560048110612d0157600080fd5b600060208083528351808285015260005b81811015612eeb57858101830151858201604001528201612ecf565b81811115612efd576000604083870101525b50601f01601f1916929092016040019392505050565b6020808252818101527f4f776e61626c653a2063616c6c6572206973206e6f7420746865206f776e6572604082015260600190565b60208082526034908201527f4f776e61626c653a2063616c6c6572206973206e6f7420746865206f776e6572604082015273081bdc881d1a1948115d195c9b985b08119d5b9960621b606082015260800190565b602080825260169082015275546f74616c207261746520657863656564732032352560501b604082015260600190565b60208082526027908201527f4f776e61626c653a2063616c6c6572206973206e6f742074686520457465726e604082015266185b08119d5b9960ca1b606082015260800190565b600060a082018783526020878185015260a0604085015281875180845260c086019150828901935060005b818110156130635784516001600160a01b03168352938301939183019160010161303e565b50506001600160a01b03969096166060850152505050608001529392505050565b83815260ff8316602082015260608101600483106130b257634e487b7160e01b600052602160045260246000fd5b826040830152949350505050565b600082198211156130d3576130d36131df565b500190565b600060ff821660ff84168060ff038211156130f5576130f56131df565b019392505050565b60008261310c5761310c6131f5565b500490565b60006001600160401b038084168061312b5761312b6131f5565b92169190910492915050565b6000816000190483118215151615613151576131516131df565b500290565b60006001600160401b038083168185168183048111821515161561317c5761317c6131df565b02949350505050565b600082821015613197576131976131df565b500390565b60006001600160401b03838116908316818110156131bc576131bc6131df565b039392505050565b60006000198214156131d8576131d86131df565b5060010190565b634e487b7160e01b600052601160045260246000fd5b634e487b7160e01b600052601260045260246000fd5b634e487b7160e01b600052602160045260246000fd5b634e487b7160e01b600052603160045260246000fd5b634e487b7160e01b600052603260045260246000fd5b6001600160a01b0381168114610fd557600080fd5b8015158114610fd557600080fdfe8be0079c531659141344cd1fd0a4f28419497f9722a3daafe3b4186f6b6457e0a26469706673582212204396d49f1df0a1146f06317d67892188c6fc405d5002f4efc74d8d0b723d748564736f6c63430008050033",
    "sourcePath": "/Users/lumonne/Eternal/contracts/main/EternalToken.sol",
    "compiler": {
        "name": "solc",
        "version": "0.8.5+commit.a4f2e591"
    },
    "functionHashes": {
        "allowance(address,address)": "dd62ed3e",
        "approve(address,uint256)": "095ea7b3",
        "attributeFundRights(address)": "d19c0bb9",
        "balanceOf(address)": "70a08231",
        "burn(uint64)": "9dbead42",
        "claimPNG()": "634a0ffc",
        "convertFromReflectedToTrueAmount(uint256)": "607aedb7",
        "convertFromTrueToReflectedAmount(uint256,bool)": "a5cd8aac",
        "decimals()": "313ce567",
        "decreaseAllowance(address,uint256)": "a457c2d7",
        "designateFund(address)": "7ef3a182",
        "eternalFund()": "d921bc4b",
        "excludeFromReward(address)": "52390c02",
        "fund()": "b60d4288",
        "getUnlockTime()": "602bc62b",
        "includeInReward(address)": "3685d419",
        "increaseAllowance(address,uint256)": "39509351",
        "isExcludedFromFee(address)": "5342acb4",
        "isExcludedFromReward(address)": "88f82020",
        "lockOwnership(uint256)": "64beb745",
        "name()": "06fdde03",
        "owner()": "8da5cb5b",
        "pangolinPair()": "602c32fa",
        "pangolinRouter()": "5af0cd90",
        "pangolinStaking()": "5eadd952",
        "pgl()": "2eff3776",
        "png()": "5f775678",
        "renounceOwnership()": "715018a6",
        "setAutoLiquidityProvision(bool)": "b358cd67",
        "setRate(uint8,uint8)": "99bc9c1b",
        "symbol()": "95d89b41",
        "totalSupply()": "18160ddd",
        "transfer(address,uint256)": "a9059cbb",
        "transferFrom(address,address,uint256)": "23b872dd",
        "transferOwnership(address)": "f2fde38b",
        "unlock()": "a69df4b5",
        "withdrawClaimedPNG(uint256,address)": "a1380e01",
        "withdrawLockedAVAX(address)": "d3ff1b2b",
        "withdrawStakedPGL(uint256,address)": "c2e8b402"
    },
    "gasEstimates": {
        "creation": {
            "codeDepositCost": "2599600",
            "executionCost": "infinite",
            "totalCost": "infinite"
        },
        "external": {
            "allowance(address,address)": "infinite",
            "approve(address,uint256)": "24661",
            "attributeFundRights(address)": "30068",
            "balanceOf(address)": "infinite",
            "burn(uint64)": "infinite",
            "claimPNG()": "infinite",
            "convertFromReflectedToTrueAmount(uint256)": "infinite",
            "convertFromTrueToReflectedAmount(uint256,bool)": "infinite",
            "decimals()": "245",
            "decreaseAllowance(address,uint256)": "27038",
            "designateFund(address)": "infinite",
            "eternalFund()": "2425",
            "excludeFromReward(address)": "infinite",
            "fund()": "2442",
            "getUnlockTime()": "2426",
            "includeInReward(address)": "infinite",
            "increaseAllowance(address,uint256)": "27042",
            "isExcludedFromFee(address)": "2589",
            "isExcludedFromReward(address)": "2633",
            "lockOwnership(uint256)": "76805",
            "name()": "infinite",
            "owner()": "2443",
            "pangolinPair()": "2382",
            "pangolinRouter()": "2405",
            "pangolinStaking()": "2427",
            "pgl()": "2383",
            "png()": "2449",
            "renounceOwnership()": "30244",
            "setAutoLiquidityProvision(bool)": "29997",
            "setRate(uint8,uint8)": "infinite",
            "symbol()": "infinite",
            "totalSupply()": "2390",
            "transfer(address,uint256)": "infinite",
            "transferFrom(address,address,uint256)": "infinite",
            "transferOwnership(address)": "30559",
            "unlock()": "58719",
            "withdrawClaimedPNG(uint256,address)": "infinite",
            "withdrawLockedAVAX(address)": "infinite",
            "withdrawStakedPGL(uint256,address)": "infinite"
        },
        "internal": {
            "_approve(address,address,uint256)": "infinite",
            "_burn(address,uint64,uint256)": "infinite",
            "_provideLiquidity(uint256)": "infinite",
            "_transfer(address,address,uint256)": "infinite",
            "getNetSupplies()": "infinite",
            "getReflectionRate()": "infinite",
            "getValues(uint256)": "infinite",
            "provideLiquidity(address,uint256)": "infinite",
            "storeLiquidityFunds(address,uint256,uint256)": "infinite",
            "swapTokensForAVAX(uint256)": "infinite"
        }
    }
}