{
  "_format": "hh-sol-artifact-1",
  "contractName": "HodlTokenV0",
  "sourceName": "contracts/HodlTokenV0.sol",
  "abi": [
    {
      "inputs": [],
      "stateMutability": "nonpayable",
      "type": "constructor"
    },
    {
      "anonymous": false,
      "inputs": [
        {
          "indexed": true,
          "internalType": "address",
          "name": "owner",
          "type": "address"
        },
        {
          "indexed": true,
          "internalType": "address",
          "name": "spender",
          "type": "address"
        },
        {
          "indexed": false,
          "internalType": "uint256",
          "name": "value",
          "type": "uint256"
        }
      ],
      "name": "Approval",
      "type": "event"
    },
    {
      "anonymous": false,
      "inputs": [
        {
          "indexed": true,
          "internalType": "address",
          "name": "previousOwner",
          "type": "address"
        },
        {
          "indexed": true,
          "internalType": "address",
          "name": "newOwner",
          "type": "address"
        }
      ],
      "name": "OwnershipTransferred",
      "type": "event"
    },
    {
      "anonymous": false,
      "inputs": [
        {
          "indexed": true,
          "internalType": "address",
          "name": "from",
          "type": "address"
        },
        {
          "indexed": true,
          "internalType": "address",
          "name": "to",
          "type": "address"
        },
        {
          "indexed": false,
          "internalType": "uint256",
          "name": "value",
          "type": "uint256"
        }
      ],
      "name": "Transfer",
      "type": "event"
    },
    {
      "inputs": [
        {
          "internalType": "address",
          "name": "owner",
          "type": "address"
        },
        {
          "internalType": "address",
          "name": "spender",
          "type": "address"
        }
      ],
      "name": "allowance",
      "outputs": [
        {
          "internalType": "uint256",
          "name": "",
          "type": "uint256"
        }
      ],
      "stateMutability": "view",
      "type": "function"
    },
    {
      "inputs": [
        {
          "internalType": "address",
          "name": "spender",
          "type": "address"
        },
        {
          "internalType": "uint256",
          "name": "amount",
          "type": "uint256"
        }
      ],
      "name": "approve",
      "outputs": [
        {
          "internalType": "bool",
          "name": "",
          "type": "bool"
        }
      ],
      "stateMutability": "nonpayable",
      "type": "function"
    },
    {
      "inputs": [
        {
          "internalType": "address",
          "name": "account",
          "type": "address"
        }
      ],
      "name": "balanceOf",
      "outputs": [
        {
          "internalType": "uint256",
          "name": "",
          "type": "uint256"
        }
      ],
      "stateMutability": "view",
      "type": "function"
    },
    {
      "inputs": [],
      "name": "decimals",
      "outputs": [
        {
          "internalType": "uint8",
          "name": "",
          "type": "uint8"
        }
      ],
      "stateMutability": "pure",
      "type": "function"
    },
    {
      "inputs": [
        {
          "internalType": "address",
          "name": "spender",
          "type": "address"
        },
        {
          "internalType": "uint256",
          "name": "subtractedValue",
          "type": "uint256"
        }
      ],
      "name": "decreaseAllowance",
      "outputs": [
        {
          "internalType": "bool",
          "name": "",
          "type": "bool"
        }
      ],
      "stateMutability": "nonpayable",
      "type": "function"
    },
    {
      "inputs": [
        {
          "internalType": "address",
          "name": "spender",
          "type": "address"
        },
        {
          "internalType": "uint256",
          "name": "addedValue",
          "type": "uint256"
        }
      ],
      "name": "increaseAllowance",
      "outputs": [
        {
          "internalType": "bool",
          "name": "",
          "type": "bool"
        }
      ],
      "stateMutability": "nonpayable",
      "type": "function"
    },
    {
      "inputs": [],
      "name": "name",
      "outputs": [
        {
          "internalType": "string",
          "name": "",
          "type": "string"
        }
      ],
      "stateMutability": "view",
      "type": "function"
    },
    {
      "inputs": [],
      "name": "owner",
      "outputs": [
        {
          "internalType": "address",
          "name": "",
          "type": "address"
        }
      ],
      "stateMutability": "view",
      "type": "function"
    },
    {
      "inputs": [],
      "name": "pangolinPair",
      "outputs": [
        {
          "internalType": "address",
          "name": "",
          "type": "address"
        }
      ],
      "stateMutability": "view",
      "type": "function"
    },
    {
      "inputs": [],
      "name": "pangolinRouter",
      "outputs": [
        {
          "internalType": "contract IPangolinRouter",
          "name": "",
          "type": "address"
        }
      ],
      "stateMutability": "view",
      "type": "function"
    },
    {
      "inputs": [],
      "name": "renounceOwnership",
      "outputs": [],
      "stateMutability": "nonpayable",
      "type": "function"
    },
    {
      "inputs": [],
      "name": "symbol",
      "outputs": [
        {
          "internalType": "string",
          "name": "",
          "type": "string"
        }
      ],
      "stateMutability": "view",
      "type": "function"
    },
    {
      "inputs": [],
      "name": "totalSupply",
      "outputs": [
        {
          "internalType": "uint256",
          "name": "",
          "type": "uint256"
        }
      ],
      "stateMutability": "view",
      "type": "function"
    },
    {
      "inputs": [
        {
          "internalType": "address",
          "name": "recipient",
          "type": "address"
        },
        {
          "internalType": "uint256",
          "name": "amount",
          "type": "uint256"
        }
      ],
      "name": "transfer",
      "outputs": [
        {
          "internalType": "bool",
          "name": "",
          "type": "bool"
        }
      ],
      "stateMutability": "nonpayable",
      "type": "function"
    },
    {
      "inputs": [
        {
          "internalType": "address",
          "name": "sender",
          "type": "address"
        },
        {
          "internalType": "address",
          "name": "recipient",
          "type": "address"
        },
        {
          "internalType": "uint256",
          "name": "amount",
          "type": "uint256"
        }
      ],
      "name": "transferFrom",
      "outputs": [
        {
          "internalType": "bool",
          "name": "",
          "type": "bool"
        }
      ],
      "stateMutability": "nonpayable",
      "type": "function"
    },
    {
      "inputs": [
        {
          "internalType": "address",
          "name": "newOwner",
          "type": "address"
        }
      ],
      "name": "transferOwnership",
      "outputs": [],
      "stateMutability": "nonpayable",
      "type": "function"
    },
    {
      "stateMutability": "payable",
      "type": "receive"
    }
  ],
  "bytecode": "0x60c06040523480156200001157600080fd5b50600062000024620003d560201b60201c565b9050806000806101000a81548173ffffffffffffffffffffffffffffffffffffffff021916908373ffffffffffffffffffffffffffffffffffffffff1602179055508073ffffffffffffffffffffffffffffffffffffffff16600073ffffffffffffffffffffffffffffffffffffffff167f8be0079c531659141344cd1fd0a4f28419497f9722a3daafe3b4186f6b6457e060405160405180910390a3506040518060400160405280600a81526020017f484f444c20546f6b656e00000000000000000000000000000000000000000000815250600690805190602001906200010f929190620003dd565b506040518060400160405280600581526020017f484f444c53000000000000000000000000000000000000000000000000000000815250600790805190602001906200015d929190620003dd565b50678ac7230489e80000600381905550600354600160003373ffffffffffffffffffffffffffffffffffffffff1673ffffffffffffffffffffffffffffffffffffffff16815260200190815260200160002081905550600073e54ca86531e17ef3616d22ca28b0d458b6c8910690508073ffffffffffffffffffffffffffffffffffffffff1663c45a01556040518163ffffffff1660e01b815260040160206040518083038186803b1580156200021357600080fd5b505afa15801562000228573d6000803e3d6000fd5b505050506040513d601f19601f820116820180604052508101906200024e9190620004a4565b73ffffffffffffffffffffffffffffffffffffffff1663c9c65396308373ffffffffffffffffffffffffffffffffffffffff166373b295c26040518163ffffffff1660e01b815260040160206040518083038186803b158015620002b157600080fd5b505afa158015620002c6573d6000803e3d6000fd5b505050506040513d601f19601f82011682018060405250810190620002ec9190620004a4565b6040518363ffffffff1660e01b81526004016200030b929190620004e1565b602060405180830381600087803b1580156200032657600080fd5b505af11580156200033b573d6000803e3d6000fd5b505050506040513d601f19601f82011682018060405250810190620003619190620004a4565b73ffffffffffffffffffffffffffffffffffffffff1660a08173ffffffffffffffffffffffffffffffffffffffff1660601b815250508073ffffffffffffffffffffffffffffffffffffffff1660808173ffffffffffffffffffffffffffffffffffffffff1660601b8152505050620005c1565b600033905090565b828054620003eb9062000542565b90600052602060002090601f0160209004810192826200040f57600085556200045b565b82601f106200042a57805160ff19168380011785556200045b565b828001600101855582156200045b579182015b828111156200045a5782518255916020019190600101906200043d565b5b5090506200046a91906200046e565b5090565b5b80821115620004895760008160009055506001016200046f565b5090565b6000815190506200049e81620005a7565b92915050565b600060208284031215620004b757600080fd5b6000620004c7848285016200048d565b91505092915050565b620004db816200050e565b82525050565b6000604082019050620004f86000830185620004d0565b620005076020830184620004d0565b9392505050565b60006200051b8262000522565b9050919050565b600073ffffffffffffffffffffffffffffffffffffffff82169050919050565b600060028204905060018216806200055b57607f821691505b6020821081141562000572576200057162000578565b5b50919050565b7f4e487b7100000000000000000000000000000000000000000000000000000000600052602260045260246000fd5b620005b2816200050e565b8114620005be57600080fd5b50565b60805160601c60a05160601c6119bb620005ed600039600061068e0152600061066a01526119bb6000f3fe6080604052600436106100f75760003560e01c806370a082311161008a578063a457c2d711610059578063a457c2d71461033b578063a9059cbb14610378578063dd62ed3e146103b5578063f2fde38b146103f2576100fe565b806370a0823114610291578063715018a6146102ce5780638da5cb5b146102e557806395d89b4114610310576100fe565b8063313ce567116100c6578063313ce567146101d357806339509351146101fe5780635af0cd901461023b578063602c32fa14610266576100fe565b806306fdde0314610103578063095ea7b31461012e57806318160ddd1461016b57806323b872dd14610196576100fe565b366100fe57005b600080fd5b34801561010f57600080fd5b5061011861041b565b60405161012591906115ec565b60405180910390f35b34801561013a57600080fd5b5061015560048036038101906101509190611145565b6104ad565b60405161016291906115b6565b60405180910390f35b34801561017757600080fd5b506101806104c4565b60405161018d919061172e565b60405180910390f35b3480156101a257600080fd5b506101bd60048036038101906101b891906110f6565b6104ce565b6040516101ca91906115b6565b60405180910390f35b3480156101df57600080fd5b506101e86105c1565b6040516101f59190611749565b60405180910390f35b34801561020a57600080fd5b5061022560048036038101906102209190611145565b6105ca565b60405161023291906115b6565b60405180910390f35b34801561024757600080fd5b50610250610668565b60405161025d91906115d1565b60405180910390f35b34801561027257600080fd5b5061027b61068c565b604051610288919061159b565b60405180910390f35b34801561029d57600080fd5b506102b860048036038101906102b39190611091565b6106b0565b6040516102c5919061172e565b60405180910390f35b3480156102da57600080fd5b506102e36106f9565b005b3480156102f157600080fd5b506102fa610833565b604051610307919061159b565b60405180910390f35b34801561031c57600080fd5b5061032561085c565b60405161033291906115ec565b60405180910390f35b34801561034757600080fd5b50610362600480360381019061035d9190611145565b6108ee565b60405161036f91906115b6565b60405180910390f35b34801561038457600080fd5b5061039f600480360381019061039a9190611145565b610993565b6040516103ac91906115b6565b60405180910390f35b3480156103c157600080fd5b506103dc60048036038101906103d791906110ba565b6109aa565b6040516103e9919061172e565b60405180910390f35b3480156103fe57600080fd5b5061041960048036038101906104149190611091565b610a31565b005b60606006805461042a906118b6565b80601f0160208091040260200160405190810160405280929190818152602001828054610456906118b6565b80156104a35780601f10610478576101008083540402835291602001916104a3565b820191906000526020600020905b81548152906001019060200180831161048657829003601f168201915b5050505050905090565b60006104ba338484610bda565b6001905092915050565b6000600354905090565b60006104db848484610da5565b6000600260008673ffffffffffffffffffffffffffffffffffffffff1673ffffffffffffffffffffffffffffffffffffffff16815260200190815260200160002060003373ffffffffffffffffffffffffffffffffffffffff1673ffffffffffffffffffffffffffffffffffffffff1681526020019081526020016000205490508281101561059f576040517f08c379a0000000000000000000000000000000000000000000000000000000008152600401610596906116ee565b60405180910390fd5b6105b5853385846105b091906117d6565b610bda565b60019150509392505050565b60006009905090565b600061065e338484600260003373ffffffffffffffffffffffffffffffffffffffff1673ffffffffffffffffffffffffffffffffffffffff16815260200190815260200160002060008873ffffffffffffffffffffffffffffffffffffffff1673ffffffffffffffffffffffffffffffffffffffff168152602001908152602001600020546106599190611780565b610bda565b6001905092915050565b7f000000000000000000000000000000000000000000000000000000000000000081565b7f000000000000000000000000000000000000000000000000000000000000000081565b6000600160008373ffffffffffffffffffffffffffffffffffffffff1673ffffffffffffffffffffffffffffffffffffffff168152602001908152602001600020549050919050565b61070161105f565b73ffffffffffffffffffffffffffffffffffffffff1661071f610833565b73ffffffffffffffffffffffffffffffffffffffff1614610775576040517f08c379a000000000000000000000000000000000000000000000000000000000815260040161076c9061166e565b60405180910390fd5b600073ffffffffffffffffffffffffffffffffffffffff1660008054906101000a900473ffffffffffffffffffffffffffffffffffffffff1673ffffffffffffffffffffffffffffffffffffffff167f8be0079c531659141344cd1fd0a4f28419497f9722a3daafe3b4186f6b6457e060405160405180910390a360008060006101000a81548173ffffffffffffffffffffffffffffffffffffffff021916908373ffffffffffffffffffffffffffffffffffffffff160217905550565b60008060009054906101000a900473ffffffffffffffffffffffffffffffffffffffff16905090565b60606007805461086b906118b6565b80601f0160208091040260200160405190810160405280929190818152602001828054610897906118b6565b80156108e45780601f106108b9576101008083540402835291602001916108e4565b820191906000526020600020905b8154815290600101906020018083116108c757829003601f168201915b5050505050905090565b60006109893384846002600061090261105f565b73ffffffffffffffffffffffffffffffffffffffff1673ffffffffffffffffffffffffffffffffffffffff16815260200190815260200160002060008873ffffffffffffffffffffffffffffffffffffffff1673ffffffffffffffffffffffffffffffffffffffff1681526020019081526020016000205461098491906117d6565b610bda565b6001905092915050565b60006109a0338484610da5565b6001905092915050565b6000600260008473ffffffffffffffffffffffffffffffffffffffff1673ffffffffffffffffffffffffffffffffffffffff16815260200190815260200160002060008373ffffffffffffffffffffffffffffffffffffffff1673ffffffffffffffffffffffffffffffffffffffff16815260200190815260200160002054905092915050565b610a3961105f565b73ffffffffffffffffffffffffffffffffffffffff16610a57610833565b73ffffffffffffffffffffffffffffffffffffffff1614610aad576040517f08c379a0000000000000000000000000000000000000000000000000000000008152600401610aa49061166e565b60405180910390fd5b600073ffffffffffffffffffffffffffffffffffffffff168173ffffffffffffffffffffffffffffffffffffffff161415610b1d576040517f08c379a0000000000000000000000000000000000000000000000000000000008152600401610b149061162e565b60405180910390fd5b8073ffffffffffffffffffffffffffffffffffffffff1660008054906101000a900473ffffffffffffffffffffffffffffffffffffffff1673ffffffffffffffffffffffffffffffffffffffff167f8be0079c531659141344cd1fd0a4f28419497f9722a3daafe3b4186f6b6457e060405160405180910390a3806000806101000a81548173ffffffffffffffffffffffffffffffffffffffff021916908373ffffffffffffffffffffffffffffffffffffffff16021790555050565b600073ffffffffffffffffffffffffffffffffffffffff168373ffffffffffffffffffffffffffffffffffffffff161415610c4a576040517f08c379a0000000000000000000000000000000000000000000000000000000008152600401610c41906116ae565b60405180910390fd5b600073ffffffffffffffffffffffffffffffffffffffff168273ffffffffffffffffffffffffffffffffffffffff161415610cba576040517f08c379a0000000000000000000000000000000000000000000000000000000008152600401610cb19061168e565b60405180910390fd5b80600260008573ffffffffffffffffffffffffffffffffffffffff1673ffffffffffffffffffffffffffffffffffffffff16815260200190815260200160002060008473ffffffffffffffffffffffffffffffffffffffff1673ffffffffffffffffffffffffffffffffffffffff168152602001908152602001600020819055508173ffffffffffffffffffffffffffffffffffffffff168373ffffffffffffffffffffffffffffffffffffffff167f8c5be1e5ebec7d5bd14f71427d1e84f3dd0314c0f7b2291e5b200ac8c7c3b92583604051610d98919061172e565b60405180910390a3505050565b600073ffffffffffffffffffffffffffffffffffffffff168373ffffffffffffffffffffffffffffffffffffffff161415610e15576040517f08c379a0000000000000000000000000000000000000000000000000000000008152600401610e0c9061160e565b60405180910390fd5b600073ffffffffffffffffffffffffffffffffffffffff168273ffffffffffffffffffffffffffffffffffffffff161415610e85576040517f08c379a0000000000000000000000000000000000000000000000000000000008152600401610e7c906116ce565b60405180910390fd5b60008111610ec8576040517f08c379a0000000000000000000000000000000000000000000000000000000008152600401610ebf9061164e565b60405180910390fd5b6000600160008573ffffffffffffffffffffffffffffffffffffffff1673ffffffffffffffffffffffffffffffffffffffff16815260200190815260200160002054905081811015610f4f576040517f08c379a0000000000000000000000000000000000000000000000000000000008152600401610f469061170e565b60405180910390fd5b8181610f5b91906117d6565b600160008673ffffffffffffffffffffffffffffffffffffffff1673ffffffffffffffffffffffffffffffffffffffff1681526020019081526020016000208190555081600160008573ffffffffffffffffffffffffffffffffffffffff1673ffffffffffffffffffffffffffffffffffffffff1681526020019081526020016000206000828254610fed9190611780565b925050819055508273ffffffffffffffffffffffffffffffffffffffff168473ffffffffffffffffffffffffffffffffffffffff167fddf252ad1be2c89b69c2b068fc378daa952ba7f163c4a11628f55a4df523b3ef84604051611051919061172e565b60405180910390a350505050565b600033905090565b60008135905061107681611957565b92915050565b60008135905061108b8161196e565b92915050565b6000602082840312156110a357600080fd5b60006110b184828501611067565b91505092915050565b600080604083850312156110cd57600080fd5b60006110db85828601611067565b92505060206110ec85828601611067565b9150509250929050565b60008060006060848603121561110b57600080fd5b600061111986828701611067565b935050602061112a86828701611067565b925050604061113b8682870161107c565b9150509250925092565b6000806040838503121561115857600080fd5b600061116685828601611067565b92505060206111778582860161107c565b9150509250929050565b61118a8161180a565b82525050565b6111998161181c565b82525050565b6111a88161185f565b82525050565b60006111b982611764565b6111c3818561176f565b93506111d3818560208601611883565b6111dc81611946565b840191505092915050565b60006111f460388361176f565b91507f486f646c546f6b656e56303a3a5f7472616e7366657228293a207472616e736660008301527f65722066726f6d20746865207a65726f206164647265737300000000000000006020830152604082019050919050565b600061125a60268361176f565b91507f4f776e61626c653a206e6577206f776e657220697320746865207a65726f206160008301527f64647265737300000000000000000000000000000000000000000000000000006020830152604082019050919050565b60006112c060438361176f565b91507f486f646c546f6b656e56303a3a5f7472616e7366657228293a207472616e736660008301527f657220616d6f756e74206d7573742062652067726561746572207468616e207a60208301527f65726f00000000000000000000000000000000000000000000000000000000006040830152606082019050919050565b600061134c60208361176f565b91507f4f776e61626c653a2063616c6c6572206973206e6f7420746865206f776e65726000830152602082019050919050565b600061138c60348361176f565b91507f486f646c546f6b656e56303a3a5f617070726f766528293a20617070726f766560008301527f20746f20746865207a65726f20616464726573730000000000000000000000006020830152604082019050919050565b60006113f260368361176f565b91507f486f646c546f6b656e56303a3a5f617070726f766528293a20617070726f766560008301527f2066726f6d20746865207a65726f2061646472657373000000000000000000006020830152604082019050919050565b600061145860368361176f565b91507f486f646c546f6b656e56303a3a5f7472616e7366657228293a207472616e736660008301527f657220746f20746865207a65726f2061646472657373000000000000000000006020830152604082019050919050565b60006114be603e8361176f565b91507f486f646c546f6b656e56303a3a7472616e7366657246726f6d28293a2074726160008301527f6e7366657220616d6f756e74206578636565647320616c6c6f77616e636500006020830152604082019050919050565b600061152460398361176f565b91507f486f646c546f6b656e56303a3a5f7472616e7366657228293a207472616e736660008301527f657220616d6f756e7420657863656564732062616c616e6365000000000000006020830152604082019050919050565b61158681611848565b82525050565b61159581611852565b82525050565b60006020820190506115b06000830184611181565b92915050565b60006020820190506115cb6000830184611190565b92915050565b60006020820190506115e6600083018461119f565b92915050565b6000602082019050818103600083015261160681846111ae565b905092915050565b60006020820190508181036000830152611627816111e7565b9050919050565b600060208201905081810360008301526116478161124d565b9050919050565b60006020820190508181036000830152611667816112b3565b9050919050565b600060208201905081810360008301526116878161133f565b9050919050565b600060208201905081810360008301526116a78161137f565b9050919050565b600060208201905081810360008301526116c7816113e5565b9050919050565b600060208201905081810360008301526116e78161144b565b9050919050565b60006020820190508181036000830152611707816114b1565b9050919050565b6000602082019050818103600083015261172781611517565b9050919050565b6000602082019050611743600083018461157d565b92915050565b600060208201905061175e600083018461158c565b92915050565b600081519050919050565b600082825260208201905092915050565b600061178b82611848565b915061179683611848565b9250827fffffffffffffffffffffffffffffffffffffffffffffffffffffffffffffffff038211156117cb576117ca6118e8565b5b828201905092915050565b60006117e182611848565b91506117ec83611848565b9250828210156117ff576117fe6118e8565b5b828203905092915050565b600061181582611828565b9050919050565b60008115159050919050565b600073ffffffffffffffffffffffffffffffffffffffff82169050919050565b6000819050919050565b600060ff82169050919050565b600061186a82611871565b9050919050565b600061187c82611828565b9050919050565b60005b838110156118a1578082015181840152602081019050611886565b838111156118b0576000848401525b50505050565b600060028204905060018216806118ce57607f821691505b602082108114156118e2576118e1611917565b5b50919050565b7f4e487b7100000000000000000000000000000000000000000000000000000000600052601160045260246000fd5b7f4e487b7100000000000000000000000000000000000000000000000000000000600052602260045260246000fd5b6000601f19601f8301169050919050565b6119608161180a565b811461196b57600080fd5b50565b61197781611848565b811461198257600080fd5b5056fea2646970667358221220747f757e5a47458ea123cb9b4a69d99c371ca8e6c4482e4dc3b3ba02a4638ce264736f6c63430008000033",
  "linkReferences": {},
  "deployedLinkReferences": {}
}